{
  "contractName": "MedLedger",
  "abi": [
    {
      "inputs": [],
      "stateMutability": "nonpayable",
      "type": "constructor"
    },
    {
      "inputs": [],
      "name": "getOwner",
      "outputs": [
        {
          "internalType": "address",
          "name": "",
          "type": "address"
        }
      ],
      "stateMutability": "view",
      "type": "function",
      "constant": true
    },
    {
      "inputs": [
        {
          "internalType": "address",
          "name": "provider",
          "type": "address"
        }
      ],
      "name": "authorizeProvider",
      "outputs": [],
      "stateMutability": "nonpayable",
      "type": "function"
    },
    {
      "inputs": [
        {
          "internalType": "uint256",
          "name": "patientId",
          "type": "uint256"
        },
        {
          "internalType": "string",
          "name": "patientName",
          "type": "string"
        },
        {
          "internalType": "string",
          "name": "diagnosis",
          "type": "string"
        },
        {
          "internalType": "string",
          "name": "treatment",
          "type": "string"
        }
      ],
      "name": "addRecord",
      "outputs": [],
      "stateMutability": "nonpayable",
      "type": "function"
    },
    {
      "inputs": [
        {
          "internalType": "uint256",
          "name": "patientId",
          "type": "uint256"
        },
        {
          "internalType": "string",
          "name": "vaccine",
          "type": "string"
        }
      ],
      "name": "addVaccineTaken",
      "outputs": [],
      "stateMutability": "nonpayable",
      "type": "function"
    },
    {
      "inputs": [
        {
          "internalType": "uint256",
          "name": "patientId",
          "type": "uint256"
        },
        {
          "internalType": "string",
          "name": "allergy",
          "type": "string"
        }
      ],
      "name": "addDrugAllergy",
      "outputs": [],
      "stateMutability": "nonpayable",
      "type": "function"
    },
    {
      "inputs": [
        {
          "internalType": "uint256",
          "name": "patientId",
          "type": "uint256"
        }
      ],
      "name": "getRecords",
      "outputs": [
        {
          "components": [
            {
              "internalType": "uint256",
              "name": "recordId",
              "type": "uint256"
            },
            {
              "internalType": "string",
              "name": "patientName",
              "type": "string"
            },
            {
              "internalType": "string",
              "name": "diagnosis",
              "type": "string"
            },
            {
              "internalType": "string",
              "name": "treatment",
              "type": "string"
            },
            {
              "internalType": "uint256",
              "name": "timestamp",
              "type": "uint256"
            }
          ],
          "internalType": "struct MedLedger.MedicalRecord[]",
          "name": "",
          "type": "tuple[]"
        },
        {
          "components": [
            {
              "internalType": "uint256",
              "name": "id",
              "type": "uint256"
            },
            {
              "internalType": "string",
              "name": "name",
              "type": "string"
            },
            {
              "internalType": "uint256",
              "name": "timestamp",
              "type": "uint256"
            }
          ],
          "internalType": "struct MedLedger.Vaccine[]",
          "name": "",
          "type": "tuple[]"
        },
        {
          "components": [
            {
              "internalType": "uint256",
              "name": "id",
              "type": "uint256"
            },
            {
              "internalType": "string",
              "name": "name",
              "type": "string"
            },
            {
              "internalType": "uint256",
              "name": "timestamp",
              "type": "uint256"
            }
          ],
          "internalType": "struct MedLedger.DrugAllergy[]",
          "name": "",
          "type": "tuple[]"
        }
      ],
      "stateMutability": "view",
      "type": "function",
      "constant": true
    }
  ],
  "bytecode": "0x608060405234801561001057600080fd5b50336000806101000a81548173ffffffffffffffffffffffffffffffffffffffff021916908373ffffffffffffffffffffffffffffffffffffffff16021790555061157a806100606000396000f3fe608060405234801561001057600080fd5b50600436106100625760003560e01c8063112ea262146100675780631a08a34814610083578063893d20e81461009f57806398f903db146100bd578063cd0a43e0146100ef578063dd0f5d621461010b575b600080fd5b610081600480360381019061007c9190610c85565b610127565b005b61009d60048036038101906100989190610d2b565b610210565b005b6100a7610399565b6040516100b49190611192565b60405180910390f35b6100d760048036038101906100d29190610cae565b6103c2565b6040516100e6939291906111ad565b60405180910390f35b61010960048036038101906101049190610cd7565b6108c0565b005b61012560048036038101906101209190610cd7565b610a08565b005b60008054906101000a900473ffffffffffffffffffffffffffffffffffffffff1673ffffffffffffffffffffffffffffffffffffffff163373ffffffffffffffffffffffffffffffffffffffff16146101b5576040517f08c379a00000000000000000000000000000000000000000000000000000000081526004016101ac906111f9565b60405180910390fd5b6001600360008373ffffffffffffffffffffffffffffffffffffffff1673ffffffffffffffffffffffffffffffffffffffff16815260200190815260200160002060006101000a81548160ff02191690831515021790555050565b600360003373ffffffffffffffffffffffffffffffffffffffff1673ffffffffffffffffffffffffffffffffffffffff16815260200190815260200160002060009054906101000a900460ff1661029c576040517f08c379a000000000000000000000000000000000000000000000000000000000815260040161029390611219565b60405180910390fd5b60006001806000878152602001908152602001600020805490506102c09190611372565b9050600160008681526020019081526020016000206040518060a0016040528083815260200186815260200185815260200184815260200142815250908060018154018082558091505060019003906000526020600020906005020160009091909190915060008201518160000155602082015181600101908051906020019061034b929190610b50565b506040820151816002019080519060200190610368929190610b50565b506060820151816003019080519060200190610385929190610b50565b506080820151816004015550505050505050565b60008060009054906101000a900473ffffffffffffffffffffffffffffffffffffffff16905090565b6060806060600360003373ffffffffffffffffffffffffffffffffffffffff1673ffffffffffffffffffffffffffffffffffffffff16815260200190815260200160002060009054906101000a900460ff16610453576040517f08c379a000000000000000000000000000000000000000000000000000000000815260040161044a90611219565b60405180910390fd5b60016000858152602001908152602001600020600260008681526020019081526020016000206000016002600087815260200190815260200160002060010182805480602002602001604051908101604052809291908181526020016000905b828210156106af57838290600052602060002090600502016040518060a0016040529081600082015481526020016001820180546104f090611446565b80601f016020809104026020016040519081016040528092919081815260200182805461051c90611446565b80156105695780601f1061053e57610100808354040283529160200191610569565b820191906000526020600020905b81548152906001019060200180831161054c57829003601f168201915b5050505050815260200160028201805461058290611446565b80601f01602080910402602001604051908101604052809291908181526020018280546105ae90611446565b80156105fb5780601f106105d0576101008083540402835291602001916105fb565b820191906000526020600020905b8154815290600101906020018083116105de57829003601f168201915b5050505050815260200160038201805461061490611446565b80601f016020809104026020016040519081016040528092919081815260200182805461064090611446565b801561068d5780601f106106625761010080835404028352916020019161068d565b820191906000526020600020905b81548152906001019060200180831161067057829003601f168201915b50505050508152602001600482015481525050815260200190600101906104b3565b50505050925081805480602002602001604051908101604052809291908181526020016000905b828210156107ae57838290600052602060002090600302016040518060600160405290816000820154815260200160018201805461071390611446565b80601f016020809104026020016040519081016040528092919081815260200182805461073f90611446565b801561078c5780601f106107615761010080835404028352916020019161078c565b820191906000526020600020905b81548152906001019060200180831161076f57829003601f168201915b50505050508152602001600282015481525050815260200190600101906106d6565b50505050915080805480602002602001604051908101604052809291908181526020016000905b828210156108ad57838290600052602060002090600302016040518060600160405290816000820154815260200160018201805461081290611446565b80601f016020809104026020016040519081016040528092919081815260200182805461083e90611446565b801561088b5780601f106108605761010080835404028352916020019161088b565b820191906000526020600020905b81548152906001019060200180831161086e57829003601f168201915b50505050508152602001600282015481525050815260200190600101906107d5565b5050505090509250925092509193909250565b600360003373ffffffffffffffffffffffffffffffffffffffff1673ffffffffffffffffffffffffffffffffffffffff16815260200190815260200160002060009054906101000a900460ff1661094c576040517f08c379a000000000000000000000000000000000000000000000000000000000815260040161094390611219565b60405180910390fd5b6000600160026000858152602001908152602001600020600101805490506109749190611372565b90506002600084815260200190815260200160002060010160405180606001604052808381526020018481526020014281525090806001815401808255809150506001900390600052602060002090600302016000909190919091506000820151816000015560208201518160010190805190602001906109f6929190610b50565b50604082015181600201555050505050565b600360003373ffffffffffffffffffffffffffffffffffffffff1673ffffffffffffffffffffffffffffffffffffffff16815260200190815260200160002060009054906101000a900460ff16610a94576040517f08c379a0000000000000000000000000000000000000000000000000000000008152600401610a8b90611219565b60405180910390fd5b600060016002600085815260200190815260200160002060000180549050610abc9190611372565b9050600260008481526020019081526020016000206000016040518060600160405280838152602001848152602001428152509080600181540180825580915050600190039060005260206000209060030201600090919091909150600082015181600001556020820151816001019080519060200190610b3e929190610b50565b50604082015181600201555050505050565b828054610b5c90611446565b90600052602060002090601f016020900481019282610b7e5760008555610bc5565b82601f10610b9757805160ff1916838001178555610bc5565b82800160010185558215610bc5579182015b82811115610bc4578251825591602001919060010190610ba9565b5b509050610bd29190610bd6565b5090565b5b80821115610bef576000816000905550600101610bd7565b5090565b6000610c06610c018461126a565b611239565b905082815260208101848484011115610c1e57600080fd5b610c29848285611404565b509392505050565b600081359050610c4081611516565b92915050565b600082601f830112610c5757600080fd5b8135610c67848260208601610bf3565b91505092915050565b600081359050610c7f8161152d565b92915050565b600060208284031215610c9757600080fd5b6000610ca584828501610c31565b91505092915050565b600060208284031215610cc057600080fd5b6000610cce84828501610c70565b91505092915050565b60008060408385031215610cea57600080fd5b6000610cf885828601610c70565b925050602083013567ffffffffffffffff811115610d1557600080fd5b610d2185828601610c46565b9150509250929050565b60008060008060808587031215610d4157600080fd5b6000610d4f87828801610c70565b945050602085013567ffffffffffffffff811115610d6c57600080fd5b610d7887828801610c46565b935050604085013567ffffffffffffffff811115610d9557600080fd5b610da187828801610c46565b925050606085013567ffffffffffffffff811115610dbe57600080fd5b610dca87828801610c46565b91505092959194509250565b6000610de2838361105f565b905092915050565b6000610df683836110af565b905092915050565b6000610e0a8383611133565b905092915050565b610e1b816113c8565b82525050565b6000610e2c826112ca565b610e36818561131d565b935083602082028501610e488561129a565b8060005b85811015610e845784840389528151610e658582610dd6565b9450610e70836112f6565b925060208a01995050600181019050610e4c565b50829750879550505050505092915050565b6000610ea1826112d5565b610eab818561132e565b935083602082028501610ebd856112aa565b8060005b85811015610ef95784840389528151610eda8582610dea565b9450610ee583611303565b925060208a01995050600181019050610ec1565b50829750879550505050505092915050565b6000610f16826112e0565b610f20818561133f565b935083602082028501610f32856112ba565b8060005b85811015610f6e5784840389528151610f4f8582610dfe565b9450610f5a83611310565b925060208a01995050600181019050610f36565b50829750879550505050505092915050565b6000610f8b826112eb565b610f958185611350565b9350610fa5818560208601611413565b610fae81611505565b840191505092915050565b6000610fc6602483611361565b91507f4f6e6c79206f776e65722063616e20706572666f726d20746869732066756e6360008301527f74696f6e000000000000000000000000000000000000000000000000000000006020830152604082019050919050565b600061102c601a83611361565b91507f4e6f7420616e20617574686f72697a65642070726f76696465720000000000006000830152602082019050919050565b60006060830160008301516110776000860182611183565b506020830151848203602086015261108f8282610f80565b91505060408301516110a46040860182611183565b508091505092915050565b600060a0830160008301516110c76000860182611183565b50602083015184820360208601526110df8282610f80565b915050604083015184820360408601526110f98282610f80565b915050606083015184820360608601526111138282610f80565b91505060808301516111286080860182611183565b508091505092915050565b600060608301600083015161114b6000860182611183565b50602083015184820360208601526111638282610f80565b91505060408301516111786040860182611183565b508091505092915050565b61118c816113fa565b82525050565b60006020820190506111a76000830184610e12565b92915050565b600060608201905081810360008301526111c78186610e96565b905081810360208301526111db8185610f0b565b905081810360408301526111ef8184610e21565b9050949350505050565b6000602082019050818103600083015261121281610fb9565b9050919050565b600060208201905081810360008301526112328161101f565b9050919050565b6000604051905081810181811067ffffffffffffffff821117156112605761125f6114d6565b5b8060405250919050565b600067ffffffffffffffff821115611285576112846114d6565b5b601f19601f8301169050602081019050919050565b6000819050602082019050919050565b6000819050602082019050919050565b6000819050602082019050919050565b600081519050919050565b600081519050919050565b600081519050919050565b600081519050919050565b6000602082019050919050565b6000602082019050919050565b6000602082019050919050565b600082825260208201905092915050565b600082825260208201905092915050565b600082825260208201905092915050565b600082825260208201905092915050565b600082825260208201905092915050565b600061137d826113fa565b9150611388836113fa565b9250827fffffffffffffffffffffffffffffffffffffffffffffffffffffffffffffffff038211156113bd576113bc611478565b5b828201905092915050565b60006113d3826113da565b9050919050565b600073ffffffffffffffffffffffffffffffffffffffff82169050919050565b6000819050919050565b82818337600083830152505050565b60005b83811015611431578082015181840152602081019050611416565b83811115611440576000848401525b50505050565b6000600282049050600182168061145e57607f821691505b60208210811415611472576114716114a7565b5b50919050565b7f4e487b7100000000000000000000000000000000000000000000000000000000600052601160045260246000fd5b7f4e487b7100000000000000000000000000000000000000000000000000000000600052602260045260246000fd5b7f4e487b7100000000000000000000000000000000000000000000000000000000600052604160045260246000fd5b6000601f19601f8301169050919050565b61151f816113c8565b811461152a57600080fd5b50565b611536816113fa565b811461154157600080fd5b5056fea2646970667358221220efa0c6418e6476b6a0ee3f6c0edd135c418130fe81a7d85909dc0751a4cb9c2264736f6c63430008000033",
  "immutableReferences": {},
  "source": "// SPDX-License-Identifier: MIT\r\npragma solidity ^0.8.0;\r\n\r\ncontract MedLedger {\r\n    address owner;\r\n\r\n    struct MedicalRecord {\r\n        uint256 recordId;\r\n        string patientName;\r\n        string diagnosis;\r\n        string treatment;\r\n        uint256 timestamp;\r\n    }\r\n\r\n    struct Vaccine {\r\n        uint256 id;\r\n        string name;\r\n        uint256 timestamp;\r\n    }\r\n\r\n    struct DrugAllergy {\r\n        uint256 id;\r\n        string name;\r\n        uint256 timestamp;\r\n    }\r\n\r\n    struct PatientData {\r\n        Vaccine[] vaccinesTaken;\r\n        DrugAllergy[] drugAllergies;\r\n    }\r\n\r\n    mapping(uint256 => MedicalRecord[]) private medicalRecords;\r\n    mapping(uint256 => PatientData) private patientData; // Mapping for vaccines and allergies\r\n    mapping(address => bool) private authorizedProviders;\r\n\r\n    modifier onlyOwner() {\r\n        require(msg.sender == owner, \"Only owner can perform this function\");\r\n        _;\r\n    }\r\n\r\n    modifier onlyAuthorizedProvider() {\r\n        require(authorizedProviders[msg.sender], \"Not an authorized provider\");\r\n        _;\r\n    }\r\n\r\n    constructor() {\r\n        owner = msg.sender;\r\n    }\r\n\r\n    function getOwner() public view returns (address) {\r\n        return owner;\r\n    }\r\n\r\n    function authorizeProvider(address provider) public onlyOwner {\r\n        authorizedProviders[provider] = true;\r\n    }\r\n\r\n    function addRecord(\r\n        uint256 patientId,\r\n        string memory patientName,\r\n        string memory diagnosis,\r\n        string memory treatment\r\n    ) public onlyAuthorizedProvider {\r\n        uint256 recordId = medicalRecords[patientId].length + 1;\r\n        medicalRecords[patientId].push(\r\n            MedicalRecord(recordId, patientName, diagnosis, treatment, block.timestamp)\r\n        );\r\n    }\r\n\r\n    function addVaccineTaken(uint256 patientId, string memory vaccine) public onlyAuthorizedProvider {\r\n        uint256 vaccineId = patientData[patientId].vaccinesTaken.length + 1;\r\n        patientData[patientId].vaccinesTaken.push(Vaccine(vaccineId, vaccine, block.timestamp));\r\n    }\r\n\r\n    function addDrugAllergy(uint256 patientId, string memory allergy) public onlyAuthorizedProvider {\r\n        uint256 allergyId = patientData[patientId].drugAllergies.length + 1;\r\n        patientData[patientId].drugAllergies.push(DrugAllergy(allergyId, allergy, block.timestamp));\r\n    }\r\n\r\n    function getRecords(uint256 patientId) \r\n        public \r\n        view \r\n        onlyAuthorizedProvider \r\n        returns (\r\n            MedicalRecord[] memory, \r\n            Vaccine[] memory, \r\n            DrugAllergy[] memory\r\n        ) \r\n    {\r\n        return (\r\n            medicalRecords[patientId], \r\n            patientData[patientId].vaccinesTaken, \r\n            patientData[patientId].drugAllergies\r\n        );\r\n    }\r\n}\r\n",
  "sourcePath": "D:\\Projects\\MARK10 - CareLedger Ganache\\contract\\contracts\\MedLedger.sol",
  "compiler": {
    "name": "solc",
    "version": "0.8.0+commit.c7dfd78e.Emscripten.clang"
  },
  "schemaVersion": "3.4.16",
  "updatedAt": "2024-10-18T18:30:16.443Z",
  "networkType": "ethereum",
  "devdoc": {
    "kind": "dev",
    "methods": {},
    "version": 1
  },
  "userdoc": {
    "kind": "user",
    "methods": {},
    "version": 1
  }
}