{
  "contractName": "MedLedger",
  "abi": [
    {
      "inputs": [],
      "stateMutability": "nonpayable",
      "type": "constructor"
    },
    {
      "inputs": [],
      "name": "getOwner",
      "outputs": [
        {
          "internalType": "address",
          "name": "",
          "type": "address"
        }
      ],
      "stateMutability": "view",
      "type": "function"
    },
    {
      "inputs": [
        {
          "internalType": "address",
          "name": "provider",
          "type": "address"
        }
      ],
      "name": "authorizeProvider",
      "outputs": [],
      "stateMutability": "nonpayable",
      "type": "function"
    },
    {
      "inputs": [
        {
          "internalType": "string",
          "name": "patientName",
          "type": "string"
        },
        {
          "internalType": "string",
          "name": "dateOfBirth",
          "type": "string"
        },
        {
          "internalType": "string",
          "name": "fathersName",
          "type": "string"
        },
        {
          "internalType": "string",
          "name": "bloodGroup",
          "type": "string"
        }
      ],
      "name": "createPatient",
      "outputs": [
        {
          "internalType": "uint256",
          "name": "",
          "type": "uint256"
        }
      ],
      "stateMutability": "nonpayable",
      "type": "function"
    },
    {
      "inputs": [
        {
          "internalType": "uint256",
          "name": "patientId",
          "type": "uint256"
        },
        {
          "internalType": "string",
          "name": "diagnosis",
          "type": "string"
        },
        {
          "internalType": "string",
          "name": "treatment",
          "type": "string"
        }
      ],
      "name": "addRecord",
      "outputs": [],
      "stateMutability": "nonpayable",
      "type": "function"
    },
    {
      "inputs": [
        {
          "internalType": "uint256",
          "name": "patientId",
          "type": "uint256"
        },
        {
          "internalType": "string",
          "name": "vaccine",
          "type": "string"
        }
      ],
      "name": "addVaccineTaken",
      "outputs": [],
      "stateMutability": "nonpayable",
      "type": "function"
    },
    {
      "inputs": [
        {
          "internalType": "uint256",
          "name": "patientId",
          "type": "uint256"
        },
        {
          "internalType": "string",
          "name": "allergy",
          "type": "string"
        }
      ],
      "name": "addDrugAllergy",
      "outputs": [],
      "stateMutability": "nonpayable",
      "type": "function"
    },
    {
      "inputs": [
        {
          "internalType": "uint256",
          "name": "patientId",
          "type": "uint256"
        }
      ],
      "name": "getRecords",
      "outputs": [
        {
          "components": [
            {
              "internalType": "string",
              "name": "patientName",
              "type": "string"
            },
            {
              "internalType": "string",
              "name": "dateOfBirth",
              "type": "string"
            },
            {
              "internalType": "string",
              "name": "fathersName",
              "type": "string"
            },
            {
              "internalType": "string",
              "name": "bloodGroup",
              "type": "string"
            }
          ],
          "internalType": "struct MedLedger.PatientInfo",
          "name": "",
          "type": "tuple"
        },
        {
          "components": [
            {
              "internalType": "uint256",
              "name": "id",
              "type": "uint256"
            },
            {
              "internalType": "string",
              "name": "diagnosis",
              "type": "string"
            },
            {
              "internalType": "string",
              "name": "treatment",
              "type": "string"
            },
            {
              "internalType": "uint256",
              "name": "timestamp",
              "type": "uint256"
            }
          ],
          "internalType": "struct MedLedger.MedicalRecord[]",
          "name": "",
          "type": "tuple[]"
        },
        {
          "components": [
            {
              "internalType": "uint256",
              "name": "id",
              "type": "uint256"
            },
            {
              "internalType": "string",
              "name": "name",
              "type": "string"
            },
            {
              "internalType": "uint256",
              "name": "timestamp",
              "type": "uint256"
            }
          ],
          "internalType": "struct MedLedger.Vaccine[]",
          "name": "",
          "type": "tuple[]"
        },
        {
          "components": [
            {
              "internalType": "uint256",
              "name": "id",
              "type": "uint256"
            },
            {
              "internalType": "string",
              "name": "name",
              "type": "string"
            },
            {
              "internalType": "uint256",
              "name": "timestamp",
              "type": "uint256"
            }
          ],
          "internalType": "struct MedLedger.DrugAllergy[]",
          "name": "",
          "type": "tuple[]"
        }
      ],
      "stateMutability": "view",
      "type": "function"
    }
  ],
  "bytecode": "0x60806040526001805534801561001457600080fd5b50336000806101000a81548173ffffffffffffffffffffffffffffffffffffffff021916908373ffffffffffffffffffffffffffffffffffffffff1602179055506001600460008060009054906101000a900473ffffffffffffffffffffffffffffffffffffffff1673ffffffffffffffffffffffffffffffffffffffff1673ffffffffffffffffffffffffffffffffffffffff16815260200190815260200160002060006101000a81548160ff021916908315150217905550611a99806100dd6000396000f3fe608060405234801561001057600080fd5b506004361061007d5760003560e01c8063893d20e81161005b578063893d20e8146100ea57806398f903db14610108578063cd0a43e01461013b578063dd0f5d62146101575761007d565b8063112ea262146100825780632e98a8531461009e57806333f90dcd146100ce575b600080fd5b61009c60048036038101906100979190611027565b610173565b005b6100b860048036038101906100b39190611050565b61025c565b6040516100c591906116f4565b60405180910390f35b6100e860048036038101906100e39190611190565b6103c9565b005b6100f261052f565b6040516100ff9190611638565b60405180910390f35b610122600480360381019061011d9190611113565b610558565b6040516101329493929190611693565b60405180910390f35b6101556004803603810190610150919061113c565b610c3a565b005b610171600480360381019061016c919061113c565b610d82565b005b60008054906101000a900473ffffffffffffffffffffffffffffffffffffffff1673ffffffffffffffffffffffffffffffffffffffff163373ffffffffffffffffffffffffffffffffffffffff1614610201576040517f08c379a00000000000000000000000000000000000000000000000000000000081526004016101f890611653565b60405180910390fd5b6001600460008373ffffffffffffffffffffffffffffffffffffffff1673ffffffffffffffffffffffffffffffffffffffff16815260200190815260200160002060006101000a81548160ff02191690831515021790555050565b6000600460003373ffffffffffffffffffffffffffffffffffffffff1673ffffffffffffffffffffffffffffffffffffffff16815260200190815260200160002060009054906101000a900460ff166102ea576040517f08c379a00000000000000000000000000000000000000000000000000000000081526004016102e190611673565b60405180910390fd5b60006001549050600160008154809291906103049061194e565b91905055506000604051806080016040528088815260200187815260200186815260200185815250905080600360008481526020019081526020016000206002016000820151816000019080519060200190610361929190610eca565b50602082015181600101908051906020019061037e929190610eca565b50604082015181600201908051906020019061039b929190610eca565b5060608201518160030190805190602001906103b8929190610eca565b509050508192505050949350505050565b600460003373ffffffffffffffffffffffffffffffffffffffff1673ffffffffffffffffffffffffffffffffffffffff16815260200190815260200160002060009054906101000a900460ff16610455576040517f08c379a000000000000000000000000000000000000000000000000000000000815260040161044c90611673565b60405180910390fd5b60006001600260008681526020019081526020016000208054905061047a9190611848565b90506002600085815260200190815260200160002060405180608001604052808381526020018581526020018481526020014281525090806001815401808255809150506001900390600052602060002090600402016000909190919091506000820151816000015560208201518160010190805190602001906104ff929190610eca565b50604082015181600201908051906020019061051c929190610eca565b5060608201518160030155505050505050565b60008060009054906101000a900473ffffffffffffffffffffffffffffffffffffffff16905090565b610560610f50565b6060806060600460003373ffffffffffffffffffffffffffffffffffffffff1673ffffffffffffffffffffffffffffffffffffffff16815260200190815260200160002060009054906101000a900460ff166105f1576040517f08c379a00000000000000000000000000000000000000000000000000000000081526004016105e890611673565b60405180910390fd5b60036000868152602001908152602001600020600201600260008781526020019081526020016000206003600088815260200190815260200160002060000160036000898152602001908152602001600020600101836040518060800160405290816000820180546106629061191c565b80601f016020809104026020016040519081016040528092919081815260200182805461068e9061191c565b80156106db5780601f106106b0576101008083540402835291602001916106db565b820191906000526020600020905b8154815290600101906020018083116106be57829003601f168201915b505050505081526020016001820180546106f49061191c565b80601f01602080910402602001604051908101604052809291908181526020018280546107209061191c565b801561076d5780601f106107425761010080835404028352916020019161076d565b820191906000526020600020905b81548152906001019060200180831161075057829003601f168201915b505050505081526020016002820180546107869061191c565b80601f01602080910402602001604051908101604052809291908181526020018280546107b29061191c565b80156107ff5780601f106107d4576101008083540402835291602001916107ff565b820191906000526020600020905b8154815290600101906020018083116107e257829003601f168201915b505050505081526020016003820180546108189061191c565b80601f01602080910402602001604051908101604052809291908181526020018280546108449061191c565b80156108915780601f1061086657610100808354040283529160200191610891565b820191906000526020600020905b81548152906001019060200180831161087457829003601f168201915b505050505081525050935082805480602002602001604051908101604052809291908181526020016000905b82821015610a275783829060005260206000209060040201604051806080016040529081600082015481526020016001820180546108fa9061191c565b80601f01602080910402602001604051908101604052809291908181526020018280546109269061191c565b80156109735780601f1061094857610100808354040283529160200191610973565b820191906000526020600020905b81548152906001019060200180831161095657829003601f168201915b5050505050815260200160028201805461098c9061191c565b80601f01602080910402602001604051908101604052809291908181526020018280546109b89061191c565b8015610a055780601f106109da57610100808354040283529160200191610a05565b820191906000526020600020905b8154815290600101906020018083116109e857829003601f168201915b50505050508152602001600382015481525050815260200190600101906108bd565b50505050925081805480602002602001604051908101604052809291908181526020016000905b82821015610b26578382906000526020600020906003020160405180606001604052908160008201548152602001600182018054610a8b9061191c565b80601f0160208091040260200160405190810160405280929190818152602001828054610ab79061191c565b8015610b045780601f10610ad957610100808354040283529160200191610b04565b820191906000526020600020905b815481529060010190602001808311610ae757829003601f168201915b5050505050815260200160028201548152505081526020019060010190610a4e565b50505050915080805480602002602001604051908101604052809291908181526020016000905b82821015610c25578382906000526020600020906003020160405180606001604052908160008201548152602001600182018054610b8a9061191c565b80601f0160208091040260200160405190810160405280929190818152602001828054610bb69061191c565b8015610c035780601f10610bd857610100808354040283529160200191610c03565b820191906000526020600020905b815481529060010190602001808311610be657829003601f168201915b5050505050815260200160028201548152505081526020019060010190610b4d565b50505050905093509350935093509193509193565b600460003373ffffffffffffffffffffffffffffffffffffffff1673ffffffffffffffffffffffffffffffffffffffff16815260200190815260200160002060009054906101000a900460ff16610cc6576040517f08c379a0000000000000000000000000000000000000000000000000000000008152600401610cbd90611673565b60405180910390fd5b600060016003600085815260200190815260200160002060010180549050610cee9190611848565b9050600360008481526020019081526020016000206001016040518060600160405280838152602001848152602001428152509080600181540180825580915050600190039060005260206000209060030201600090919091909150600082015181600001556020820151816001019080519060200190610d70929190610eca565b50604082015181600201555050505050565b600460003373ffffffffffffffffffffffffffffffffffffffff1673ffffffffffffffffffffffffffffffffffffffff16815260200190815260200160002060009054906101000a900460ff16610e0e576040517f08c379a0000000000000000000000000000000000000000000000000000000008152600401610e0590611673565b60405180910390fd5b600060016003600085815260200190815260200160002060000180549050610e369190611848565b9050600360008481526020019081526020016000206000016040518060600160405280838152602001848152602001428152509080600181540180825580915050600190039060005260206000209060030201600090919091909150600082015181600001556020820151816001019080519060200190610eb8929190610eca565b50604082015181600201555050505050565b828054610ed69061191c565b90600052602060002090601f016020900481019282610ef85760008555610f3f565b82601f10610f1157805160ff1916838001178555610f3f565b82800160010185558215610f3f579182015b82811115610f3e578251825591602001919060010190610f23565b5b509050610f4c9190610f78565b5090565b6040518060800160405280606081526020016060815260200160608152602001606081525090565b5b80821115610f91576000816000905550600101610f79565b5090565b6000610fa8610fa384611740565b61170f565b905082815260208101848484011115610fc057600080fd5b610fcb8482856118da565b509392505050565b600081359050610fe281611a35565b92915050565b600082601f830112610ff957600080fd5b8135611009848260208601610f95565b91505092915050565b60008135905061102181611a4c565b92915050565b60006020828403121561103957600080fd5b600061104784828501610fd3565b91505092915050565b6000806000806080858703121561106657600080fd5b600085013567ffffffffffffffff81111561108057600080fd5b61108c87828801610fe8565b945050602085013567ffffffffffffffff8111156110a957600080fd5b6110b587828801610fe8565b935050604085013567ffffffffffffffff8111156110d257600080fd5b6110de87828801610fe8565b925050606085013567ffffffffffffffff8111156110fb57600080fd5b61110787828801610fe8565b91505092959194509250565b60006020828403121561112557600080fd5b600061113384828501611012565b91505092915050565b6000806040838503121561114f57600080fd5b600061115d85828601611012565b925050602083013567ffffffffffffffff81111561117a57600080fd5b61118685828601610fe8565b9150509250929050565b6000806000606084860312156111a557600080fd5b60006111b386828701611012565b935050602084013567ffffffffffffffff8111156111d057600080fd5b6111dc86828701610fe8565b925050604084013567ffffffffffffffff8111156111f957600080fd5b61120586828701610fe8565b9150509250925092565b600061121b8383611498565b905092915050565b600061122f83836114e8565b905092915050565b600061124383836115ca565b905092915050565b6112548161189e565b82525050565b6000611265826117a0565b61126f81856117f3565b93508360208202850161128185611770565b8060005b858110156112bd578484038952815161129e858261120f565b94506112a9836117cc565b925060208a01995050600181019050611285565b50829750879550505050505092915050565b60006112da826117ab565b6112e48185611804565b9350836020820285016112f685611780565b8060005b8581101561133257848403895281516113138582611223565b945061131e836117d9565b925060208a019950506001810190506112fa565b50829750879550505050505092915050565b600061134f826117b6565b6113598185611815565b93508360208202850161136b85611790565b8060005b858110156113a757848403895281516113888582611237565b9450611393836117e6565b925060208a0199505060018101905061136f565b50829750879550505050505092915050565b60006113c4826117c1565b6113ce8185611826565b93506113de8185602086016118e9565b6113e781611a24565b840191505092915050565b60006113ff602483611837565b91507f4f6e6c79206f776e65722063616e20706572666f726d20746869732066756e6360008301527f74696f6e000000000000000000000000000000000000000000000000000000006020830152604082019050919050565b6000611465601a83611837565b91507f4e6f7420616e20617574686f72697a65642070726f76696465720000000000006000830152602082019050919050565b60006060830160008301516114b0600086018261161a565b50602083015184820360208601526114c882826113b9565b91505060408301516114dd604086018261161a565b508091505092915050565b6000608083016000830151611500600086018261161a565b506020830151848203602086015261151882826113b9565b9150506040830151848203604086015261153282826113b9565b9150506060830151611547606086018261161a565b508091505092915050565b6000608083016000830151848203600086015261156f82826113b9565b9150506020830151848203602086015261158982826113b9565b915050604083015184820360408601526115a382826113b9565b915050606083015184820360608601526115bd82826113b9565b9150508091505092915050565b60006060830160008301516115e2600086018261161a565b50602083015184820360208601526115fa82826113b9565b915050604083015161160f604086018261161a565b508091505092915050565b611623816118d0565b82525050565b611632816118d0565b82525050565b600060208201905061164d600083018461124b565b92915050565b6000602082019050818103600083015261166c816113f2565b9050919050565b6000602082019050818103600083015261168c81611458565b9050919050565b600060808201905081810360008301526116ad8187611552565b905081810360208301526116c181866112cf565b905081810360408301526116d58185611344565b905081810360608301526116e9818461125a565b905095945050505050565b60006020820190506117096000830184611629565b92915050565b6000604051905081810181811067ffffffffffffffff82111715611736576117356119f5565b5b8060405250919050565b600067ffffffffffffffff82111561175b5761175a6119f5565b5b601f19601f8301169050602081019050919050565b6000819050602082019050919050565b6000819050602082019050919050565b6000819050602082019050919050565b600081519050919050565b600081519050919050565b600081519050919050565b600081519050919050565b6000602082019050919050565b6000602082019050919050565b6000602082019050919050565b600082825260208201905092915050565b600082825260208201905092915050565b600082825260208201905092915050565b600082825260208201905092915050565b600082825260208201905092915050565b6000611853826118d0565b915061185e836118d0565b9250827fffffffffffffffffffffffffffffffffffffffffffffffffffffffffffffffff0382111561189357611892611997565b5b828201905092915050565b60006118a9826118b0565b9050919050565b600073ffffffffffffffffffffffffffffffffffffffff82169050919050565b6000819050919050565b82818337600083830152505050565b60005b838110156119075780820151818401526020810190506118ec565b83811115611916576000848401525b50505050565b6000600282049050600182168061193457607f821691505b60208210811415611948576119476119c6565b5b50919050565b6000611959826118d0565b91507fffffffffffffffffffffffffffffffffffffffffffffffffffffffffffffffff82141561198c5761198b611997565b5b600182019050919050565b7f4e487b7100000000000000000000000000000000000000000000000000000000600052601160045260246000fd5b7f4e487b7100000000000000000000000000000000000000000000000000000000600052602260045260246000fd5b7f4e487b7100000000000000000000000000000000000000000000000000000000600052604160045260246000fd5b6000601f19601f8301169050919050565b611a3e8161189e565b8114611a4957600080fd5b50565b611a55816118d0565b8114611a6057600080fd5b5056fea264697066735822122044dba26cc5c4bcea470282c64e393be2adafdbdc6a6ec7c9bc9ac1a2e27ff4cf64736f6c63430008000033",
  "immutableReferences": {},
  "source": "// SPDX-License-Identifier: MIT\r\npragma solidity ^0.8.0;\r\n\r\ncontract MedLedger {\r\n    address owner;\r\n    uint256 private patientIdCounter = 1; // Counter to auto-generate patient IDs\r\n\r\n    struct MedicalRecord {\r\n        uint256 id;\r\n        string diagnosis;\r\n        string treatment;\r\n        uint256 timestamp;\r\n    }\r\n\r\n    struct Vaccine {\r\n        uint256 id;\r\n        string name;\r\n        uint256 timestamp;\r\n    }\r\n\r\n    struct DrugAllergy {\r\n        uint256 id;\r\n        string name;\r\n        uint256 timestamp;\r\n    }\r\n\r\n    struct PatientInfo {\r\n        string patientName;\r\n        string dateOfBirth; // Added field\r\n        string fathersName;  // Added field\r\n        string bloodGroup;   // Added field\r\n    }\r\n\r\n    struct PatientData {\r\n        Vaccine[] vaccinesTaken;\r\n        DrugAllergy[] drugAllergies;\r\n        PatientInfo patientInfo;\r\n    }\r\n\r\n    mapping(uint256 => MedicalRecord[]) private medicalRecords;\r\n    mapping(uint256 => PatientData) private patientData;\r\n    mapping(address => bool) private authorizedProviders;\r\n\r\n    modifier onlyOwner() {\r\n        require(msg.sender == owner, \"Only owner can perform this function\");\r\n        _;\r\n    }\r\n\r\n    modifier onlyAuthorizedProvider() {\r\n        require(authorizedProviders[msg.sender], \"Not an authorized provider\");\r\n        _;\r\n    }\r\n\r\n    constructor() {\r\n        owner = msg.sender;\r\n        authorizedProviders[owner] = true; // Automatically authorize the owner\r\n    }\r\n\r\n    function getOwner() public view returns (address) {\r\n        return owner;\r\n    }\r\n\r\n    function authorizeProvider(address provider) public onlyOwner {\r\n        authorizedProviders[provider] = true;\r\n    }\r\n\r\n    // Create a new patient with auto-generated patient ID\r\n    function createPatient(\r\n        string memory patientName,\r\n        string memory dateOfBirth,\r\n        string memory fathersName,\r\n        string memory bloodGroup\r\n    ) public onlyAuthorizedProvider returns (uint256) {\r\n        uint256 newPatientId = patientIdCounter;\r\n        patientIdCounter++; // Increment the patient ID counter for next patient\r\n\r\n        PatientInfo memory info = PatientInfo({\r\n            patientName: patientName,\r\n            dateOfBirth: dateOfBirth,\r\n            fathersName: fathersName,\r\n            bloodGroup: bloodGroup\r\n        });\r\n\r\n        patientData[newPatientId].patientInfo = info;\r\n\r\n        return newPatientId; // Return the generated patient ID\r\n    }\r\n\r\n    function addRecord(\r\n        uint256 patientId,\r\n        string memory diagnosis,\r\n        string memory treatment\r\n    ) public onlyAuthorizedProvider {\r\n        uint256 recordId = medicalRecords[patientId].length + 1;\r\n        medicalRecords[patientId].push(\r\n            MedicalRecord(recordId, diagnosis, treatment, block.timestamp)\r\n        );\r\n    }\r\n\r\n    function addVaccineTaken(uint256 patientId, string memory vaccine) public onlyAuthorizedProvider {\r\n        uint256 vaccineId = patientData[patientId].vaccinesTaken.length + 1;\r\n        patientData[patientId].vaccinesTaken.push(Vaccine(vaccineId, vaccine, block.timestamp));\r\n    }\r\n\r\n    function addDrugAllergy(uint256 patientId, string memory allergy) public onlyAuthorizedProvider {\r\n        uint256 allergyId = patientData[patientId].drugAllergies.length + 1;\r\n        patientData[patientId].drugAllergies.push(DrugAllergy(allergyId, allergy, block.timestamp));\r\n    }\r\n\r\n    function getRecords(uint256 patientId)\r\n        public\r\n        view\r\n        onlyAuthorizedProvider\r\n        returns (\r\n            PatientInfo memory,\r\n            MedicalRecord[] memory,\r\n            Vaccine[] memory,\r\n            DrugAllergy[] memory\r\n        )\r\n    {\r\n        return (\r\n            patientData[patientId].patientInfo,\r\n            medicalRecords[patientId],\r\n            patientData[patientId].vaccinesTaken,\r\n            patientData[patientId].drugAllergies\r\n        );\r\n    }\r\n}\r\n",
  "sourcePath": "D:\\Projects\\MARK4 - CareLedger Ganache\\contract\\contracts\\MedLedger.sol",
  "compiler": {
    "name": "solc",
    "version": "0.8.0+commit.c7dfd78e.Emscripten.clang"
  },
  "schemaVersion": "3.4.16",
  "updatedAt": "2024-11-11T13:29:35.213Z",
  "devdoc": {
    "kind": "dev",
    "methods": {},
    "version": 1
  },
  "userdoc": {
    "kind": "user",
    "methods": {},
    "version": 1
  }
}